S017000068656C6C6F776F726C645F6B6C6573732E73313920
S20500000013E7
S20500000100F9
S20500000200F8
S20500000300F7
S20500000413E3
S20500000500F5
S20500000600F4
S20500000700F3
S20500000813DF
S20500000900F1
S20500000A00F0
S20500000B00EF
S20500000C13DB
S20500000D00ED
S20500000E00EC
S20500000F00EB
S20500001013D7
S20500001100E9
S20500001200E8
S20500001300E7
S20500001413D3
S20500001500E5
S20500001600E4
S20500001700E3
S20500001813CF
S20500001900E1
S20500001A00E0
S20500001B00DF
S20500001C13CB
S20500001D00DD
S20500001E00DC
S20500001F00DB
S20500002013C7
S20500002100D9
S20500002200D8
S20500002300D7
S20500002413C3
S20500002500D5
S20500002600D4
S20500002700D3
S20500002813BF
S20500002900D1
S20500002A00D0
S20500002B00CF
S20500002C13BB
S20500002D00CD
S20500002E00CC
S20500002F00CB
S20500003013B7
S20500003100C9
S20500003200C8
S20500003300C7
S20500003413B3
S20500003500C5
S20500003600C4
S20500003700C3
S20500003813AF
S20500003900C1
S20500003A00C0
S20500003B00BF
S20500003C13AB
S20500003D00BD
S20500003E00BC
S20500003F00BB
S20500004013A7
S20500004100B9
S20500004200B8
S20500004300B7
S20500004413A3
S20500004500B5
S20500004600B4
S20500004700B3
S205000048139F
S20500004900B1
S20500004A00B0
S20500004B00AF
S20500004C139B
S20500004D00AD
S20500004E00AC
S20500004F00AB
S2050000501397
S20500005100A9
S20500005200A8
S20500005300A7
S2050000541393
S20500005500A5
S20500005600A4
S20500005700A3
S205000058138F
S20500005900A1
S20500005A00A0
S20500005B009F
S20500005C6F2F
S20500005D009D
S20500005E405C
S20500005F207B
S2050000606F2B
S2050000610099
S2050000620098
S2050000632275
S2050000646F27
S2050000650095
S205000066C0D4
S2050000672370
S2050000686F23
S2050000690091
S20500006A8010
S20500006B256A
S20500006C6F1F
S20500006D008D
S20500006E404C
S20500006F2764
S2050000706F1B
S2050000710089
S2050000720088
S2050000732B5C
S2050000746F17
S2050000750085
S205000076C0C4
S205000077285B
S2050000786F13
S2050000790081
S20500007A8000
S20500007B2E51
S20500007C6F0F
S20500007D007D
S20500007E403C
S20500007F2C4F
S2050000806F0B
S2050000810079
S205000082C0B8
S2050000830275
S2050000846F07
S2050000850075
S205000086C0B4
S2050000872F44
S2050000886F03
S2050000890071
S20500008A80F0
S20500008B313E
S20500008C006E
S20500008D006D
S20500008E006C
S20500008F006B
S205000090006A
S2050000910069
S2050000920068
S2050000930067
S2050000946FF7
S2050000950065
S205000096C0A4
S2050000971152
S205000098233F
S205000099263B
S20500009A114F
S20500009B005F
S20500009C6FEF
S20500009D005D
S20500009E104C
S20500009F015A
S2050000A0EF6B
S2050000A10059
S2050000A290C8
S2050000A30E49
S2050000A483D3
S2050000A52035
S2050000A6C193
S2050000A70053
S2050000A86FE3
S2050000A90051
S2050000AA80D0
S2050000AB311E
S2050000AC93BB
S2050000AD0E3F
S2050000AE400C
S2050000AF0942
S2050000B073D7
S2050000B190B9
S2050000B25EEA
S2050000B33017
S2050000B493B3
S2050000B50045
S2050000B60044
S2050000B70043
S2050000B8132F
S2050000B981C0
S2050000BA0040
S2050000BB003F
S2050000BC93AB
S2050000BD81BC
S2050000BE003C
S2050000BF003B
S2050000C01327
S2050000C182B7
S2050000C20038
S2050000C30037
S2050000C493A3
S2050000C582B3
S2050000C60034
S2050000C70033
S2050000C8131F
S2050000C983AE
S2050000CA0030
S2050000CB002F
S2050000CC939B
S2050000CD83AA
S2050000CE002C
S2050000CF002B
S2050000D01317
S2050000D184A5
S2050000D20028
S2050000D30027
S2050000D49393
S2050000D584A1
S2050000D60024
S2050000D70023
S2050000D8130F
S2050000D9859C
S2050000DA0020
S2050000DB001F
S2050000DC938B
S2050000DD8598
S2050000DE001C
S2050000DF001B
S2050000E01307
S2050000E18693
S2050000E20018
S2050000E30017
S2050000E49383
S2050000E5868F
S2050000E60014
S2050000E70013
S2050000E813FF
S2050000E9878A
S2050000EA0010
S2050000EB000F
S2050000EC937B
S2050000ED8786
S2050000EE000C
S2050000EF000B
S2050000F013F7
S2050000F18881
S2050000F20008
S2050000F30007
S2050000F49373
S2050000F5887D
S2050000F60004
S2050000F70003
S2050000F813EF
S2050000F98978
S2050000FA0000
S2050000FB00FF
S2050000FC936B
S2050000FD8974
S2050000FE00FC
S2050000FF00FB
S20500010013E6
S2050001018A6E
S20500010200F7
S20500010300F6
S2050001049362
S2050001058A6A
S20500010600F3
S20500010700F2
S20500010813DE
S2050001098B65
S20500010A00EF
S20500010B00EE
S20500010C935A
S20500010D8B61
S20500010E00EB
S20500010F00EA
S20500011013D6
S2050001118C5C
S20500011200E7
S20500011300E6
S2050001149352
S2050001158C58
S20500011600E3
S20500011700E2
S20500011813CE
S2050001198D53
S20500011A00DF
S20500011B00DE
S20500011C934A
S20500011D8D4F
S20500011E00DB
S20500011F00DA
S20500012013C6
S2050001218E4A
S20500012200D7
S20500012300D6
S2050001249342
S2050001258E46
S20500012600D3
S20500012700D2
S20500012813BE
S2050001298F41
S20500012A00CF
S20500012B00CE
S20500012C933A
S20500012D8F3D
S20500012E00CB
S20500012F00CA
S205000130B712
S20500013100C8
S20500013202C5
S20500013300C6
S2050001347352
S20500013522A2
S2050001364083
S205000137F1D1
S20500013813AE
S205000139724E
S20500013A724D
S20500013B00BE
S20500013C13AA
S20500013D0EAE
S20500013E00BB
S20500013F00BA
S205000140B702
S2050001410EAA
S20500014200B7
S2050001430FA7
S20500014413A2
S2050001450FA5
S20500014600B3
S20500014701B1
S205000148B7FA
S2050001490FA1
S20500014AFEB1
S20500014BFFAF
S20500014C634A
S20500014D1498
S20500014EC2E9
S20500014F01A9
S2050001501396
S2050001518127
S2050001520E99
S20500015300A6
S2050001541392
S2050001550E96
S2050001561E85
S20500015700A2
S205000158B3EE
S2050001598E12
S20500015AFEA1
S20500015B019D
S20500015CE3BA
S20500015D1884
S20500015EEEAD
S20500015FFF9B
S2050001609306
S2050001618117
S2050001620E89
S2050001630096
S205000164177E
S2050001650D87
S2050001661083
S2050001670092
S205000168137E
S2050001690D83
S20500016A4D42
S20500016B008E
S20500016C97F6
S20500016D0D7F
S20500016E107B
S20500016F008A
S20500017093F6
S2050001718DFB
S205000172CDBA
S205000173097D
S2050001746322
S205000175582C
S205000176BDC6
S2050001770181
S205000178235E
S2050001792060
S20500017A0D72
S20500017B007E
S20500017C136A
S20500017D0D6F
S20500017E4D2E
S20500017F007A
S205000180E396
S205000181DC9C
S205000182ADCA
S205000183FF77
S205000184EF86
S2050001851064
S2050001864033
S2050001872D45
S205000188135E
S205000189056B
S20500018A006F
S20500018B006E
S20500018C93DA
S20500018D0567
S20500018E105B
S20500018F006A
S205000190EF7A
S2050001911058
S2050001920067
S2050001931E48
S2050001941352
S205000195055F
S2050001960063
S2050001970062
S20500019893CE
S205000199055B
S20500019A005F
S20500019B005E
S20500019CEF6E
S20500019D005C
S20500019E401B
S20500019F3426
S2050001A01346
S2050001A10454
S2050001A20552
S2050001A30056
S2050001A4EF66
S2050001A51044
S2050001A64013
S2050001A7232F
S2050001A8133E
S2050001A9054B
S2050001AA044B
S2050001AB004E
S2050001ACEF5E
S2050001AD103C
S2050001AEC08B
S2050001AF2921
S2050001B01336
S2050001B10147
S2050001B20146
S2050001B3FF47
S2050001B42322
S2050001B52024
S2050001B6D172
S2050001B70141
S2050001B8231E
S2050001B9221E
S2050001BAE15E
S2050001BB013D
S2050001BC231A
S2050001BD2418
S2050001BEF14A
S2050001BF0139
S2050001C073C6
S2050001C12F09
S2050001C22017
S2050001C33402
S2050001C4F342
S2050001C52E06
S2050001C60033
S2050001C7FC36
S2050001C8B77A
S2050001C90F21
S2050001CA002F
S2050001CB80AE
S2050001CC939A
S2050001CD8F9D
S2050001CEBF6C
S2050001CF002A
S2050001D063C6
S2050001D11810
S2050001D2FF28
S2050001D30125
S2050001D40322
S2050001D52FF5
S2050001D641E2
S2050001D70022
S2050001D8839E
S2050001D92FF1
S2050001DA819E
S2050001DB001E
S2050001DC67B6
S2050001DD809C
S2050001DE0E0D
S2050001DF001A
S2050001E0B762
S2050001E10F09
S2050001E20017
S2050001E3C056
S2050001E49382
S2050001E58F85
S2050001E63FD4
S2050001E70012
S2050001E863AE
S2050001E90C04
S2050001EAFF10
S2050001EB1DF1
S2050001ECB756
S2050001ED0FFD
S2050001EE000B
S2050001EF808A
S2050001F09376
S2050001F18F79
S2050001F23FC8
S2050001F30006
S2050001F463A2
S2050001F506FE
S2050001F6FF04
S2050001F71DE5
S2050001F8B74A
S2050001F90FF1
S2050001FA00FF
S2050001FB807E
S2050001FC936A
S2050001FD8F6D
S2050001FE7F7C
S2050001FF00FA
S2050002006395
S20500020118DF
S205000202FFF7
S20500020301F4
S20500020403F1
S2050002052FC4
S20500020641B1
S20500020700F1
S205000208836D
S2050002092FC0
S20500020A816D
S20500020B00ED
S20500020C6785
S20500020D806B
S20500020E0EDC
S20500020F00E9
S2050002109355
S2050002110FD8
S205000212B036
S20500021300E5
S2050002146381
S20500021506DD
S205000216FFE3
S20500021719C8
S205000218934D
S2050002190FD0
S20500021A00DE
S20500021B11CC
S20500021C6379
S20500021D14C7
S20500021EFFDB
S20500021F01D8
S2050002206F69
S205000221F0E7
S2050002229F37
S205000223E7EE
S2050002249341
S2050002250FC4
S20500022620B2
S20500022700D1
S205000228636D
S2050002290CC3
S20500022AFFCF
S20500022B15B8
S20500022C9339
S20500022D0FBC
S20500022E507A
S20500022F00C9
S2050002306365
S20500023108BF
S205000232FFC7
S20500023319AC
S2050002349331
S2050002350FB4
S2050002367052
S20500023700C1
S205000238635D
S20500023904BB
S20500023AFFBF
S20500023B19A4
S20500023C9329
S20500023D0FAC
S20500023E407A
S20500023F00B9
S2050002406355
S20500024100B7
S205000242FFB7
S205000243199C
S2050002449321
S2050002450FA4
S2050002466052
S20500024700B1
S205000248634D
S2050002490CA3
S20500024AFFAF
S20500024B1796
S20500024C8329
S20500024D2E7D
S20500024E01A9
S20500024F00A9
S20500025003A5
S2050002512F78
S2050002524165
S20500025300A5
S2050002548321
S2050002552F74
S2050002568121
S20500025700A1
S205000258138D
S205000259019E
S20500025A019D
S20500025B019C
S20500025C7329
S20500025D009B
S20500025E207A
S20500025F3069
S2050002608315
S2050002612E69
S2050002620195
S2050002630095
S2050002641381
S2050002650192
S2050002660191
S2050002670190
S205000268137D
S205000269018E
S20500026A018D
S20500026BFA93
S20500026C2369
S20500026D2E5D
S20500026E1179
S20500026F0485
S205000270EF99
S2050002710087
S2050002724046
S205000273166F
S20500027497ED
S2050002750083
S2050002760082
S2050002770081
S20500027893ED
S20500027980FF
S20500027A80FE
S20500027B1D60
S20500027C6F0D
S20500027D007B
S20500027E007A
S20500027F2A4F
S20500028083F5
S2050002812E49
S2050002820175
S2050002830075
S2050002841361
S2050002850172
S2050002860171
S2050002870170
S205000288135D
S205000289016E
S20500028A016D
S20500028BFA73
S20500028C2349
S20500028D2E3D
S20500028E1159
S20500028F0465
S205000290EF79
S2050002910067
S2050002924026
S2050002931451
S20500029497CD
S2050002950063
S2050002960062
S2050002970061
S20500029893CD
S20500029980DF
S20500029A80DE
S20500029B1B42
S20500029C6FED
S20500029D104B
S20500029E005A
S20500029F0C4D
S2050002A083D5
S2050002A12E29
S2050002A20155
S2050002A30055
S2050002A41341
S2050002A50152
S2050002A60151
S2050002A70150
S2050002A8133D
S2050002A9014E
S2050002AA014D
S2050002ABFA53
S2050002AC2329
S2050002AD2E1D
S2050002AE1139
S2050002AF0445
S2050002B0EF59
S2050002B10047
S2050002B24006
S2050002B31233
S2050002B497AD
S2050002B50043
S2050002B60042
S2050002B70041
S2050002B893AD
S2050002B980BF
S2050002BA80BE
S2050002BB1924
S2050002BC6FCD
S2050002BD003B
S2050002BE40FA
S2050002BF43F6
S2050002C083B5
S2050002C12E09
S2050002C20135
S2050002C30035
S2050002C41321
S2050002C50132
S2050002C60131
S2050002C70130
S2050002C8131D
S2050002C9012E
S2050002CA012D
S2050002CBFA33
S2050002CC2309
S2050002CD2EFD
S2050002CE1119
S2050002CF0425
S2050002D0EF39
S2050002D10027
S2050002D240E6
S2050002D31015
S2050002D4978D
S2050002D50023
S2050002D60022
S2050002D70021
S2050002D8938D
S2050002D9809F
S2050002DA809E
S2050002DB1706
S2050002DC6FAD
S2050002DD100B
S2050002DE40DA
S2050002DF0811
S2050002E08395
S2050002E12EE9
S2050002E20115
S2050002E30015
S2050002E41301
S2050002E50112
S2050002E60111
S2050002E70110
S2050002E813FD
S2050002E9010E
S2050002EA010D
S2050002EBFA13
S2050002EC23E9
S2050002ED2EDD
S2050002EE11F9
S2050002EF0405
S2050002F0EF19
S2050002F10007
S2050002F240C6
S2050002F30EF7
S2050002F4976D
S2050002F50003
S2050002F60002
S2050002F70001
S2050002F8936D
S2050002F9807F
S2050002FA807E
S2050002FB15E8
S2050002FC6F8D
S2050002FD10EB
S2050002FE807A
S2050002FF06F3
S2050003008374
S2050003012EC8
S20500030201F4
S20500030300F4
S20500030413E0
S20500030501F1
S20500030601F0
S20500030701EF
S20500030813DC
S20500030901ED
S20500030A01EC
S20500030BFAF2
S20500030C23C8
S20500030D2EBC
S20500030E11D8
S20500030F04E4
S205000310EFF8
S20500031100E6
S20500031240A5
S2050003130CD8
S205000314974C
S20500031500E2
S20500031600E1
S20500031700E0
S205000318934C
S205000319805E
S20500031A805D
S20500031B13C9
S20500031C6F6C
S20500031D00DA
S20500031EC019
S20500031F4593
S2050003208354
S2050003212EA8
S20500032201D4
S20500032300D4
S20500032413C0
S20500032501D1
S20500032601D0
S20500032701CF
S20500032813BC
S20500032901CD
S20500032A01CC
S20500032BFAD2
S20500032C23A8
S20500032D2E9C
S20500032E11B8
S20500032F04C4
S205000330EFD8
S20500033100C6
S2050003324085
S2050003330ABA
S205000334972C
S20500033500C2
S20500033600C1
S20500033700C0
S205000338932C
S205000339803E
S20500033A803D
S20500033B11AB
S20500033C6F4C
S20500033D10AA
S20500033EC0F9
S20500033F02B6
S2050003408334
S2050003412E88
S20500034201B4
S20500034300B4
S20500034413A0
S20500034501B1
S20500034601B0
S20500034701AF
S205000348139C
S20500034901AD
S20500034A01AC
S20500034BFAB2
S20500034C2388
S20500034D2E7C
S20500034E1198
S20500034F04A4
S205000350EFB8
S20500035100A6
S2050003524065
S205000353089C
S205000354970C
S20500035500A2
S20500035600A1
S20500035700A0
S205000358930C
S205000359801E
S20500035A801D
S20500035B0F8D
S20500035C6F2C
S20500035D009A
S20500035E8019
S20500035F4751
S2050003608314
S2050003612E68
S2050003620194
S2050003630094
S2050003641380
S2050003650191
S2050003660190
S205000367018F
S205000368137C
S205000369018D
S20500036A018C
S20500036BFA92
S20500036C2368
S20500036D2E5C
S20500036E1178
S20500036F0484
S205000370EF98
S2050003710086
S2050003724045
S205000373067E
S20500037497EC
S2050003750082
S2050003760081
S2050003770080
S20500037893EC
S20500037980FE
S20500037A80FD
S20500037B0D6F
S20500037C6F0C
S20500037D007A
S20500037E1069
S20500037F7FF9
S20500038083F4
S2050003812E48
S2050003820174
S2050003830074
S2050003841360
S2050003850171
S2050003860170
S205000387016F
S205000388135C
S205000389016D
S20500038A016C
S20500038BFA72
S20500038C2348
S20500038D2E3C
S20500038E1158
S20500038F0464
S205000390EF78
S2050003910066
S2050003924025
S2050003930460
S20500039497CC
S2050003950062
S2050003960061
S2050003970060
S20500039893CC
S20500039980DE
S20500039A80DD
S20500039B0B51
S20500039C6FEC
S20500039D005A
S20500039E1049
S20500039F0C4C
S2050003A083D4
S2050003A12E28
S2050003A20154
S2050003A30054
S2050003A41340
S2050003A50151
S2050003A60150
S2050003A7014F
S2050003A8133C
S2050003A9014D
S2050003AA014C
S2050003ABFA52
S2050003AC2328
S2050003AD2E1C
S2050003AE1138
S2050003AF0444
S2050003B0EF58
S2050003B10046
S2050003B24005
S2050003B30242
S2050003B497AC
S2050003B50042
S2050003B60041
S2050003B70040
S2050003B893AC
S2050003B980BE
S2050003BA80BD
S2050003BB0933
S2050003BC6FCC
S2050003BD003A
S2050003BED069
S2050003BF69CF
S2050003C083B4
S2050003C12E08
S2050003C20134
S2050003C30034
S2050003C40330
S2050003C52F03
S2050003C641F0
S2050003C70030
S2050003C883AC
S2050003C92FFF
S2050003CA81AC
S2050003CB002C
S2050003CC1318
S2050003CD0129
S2050003CE0128
S2050003CF0127
S2050003D073B4
S2050003D10026
S2050003D22005
S2050003D330F4
S2050003D42300
S2050003D52002
S2050003D631F0
S2050003D70020
S2050003D823FC
S2050003D922FC
S2050003DA41DC
S2050003DB001C
S2050003DC23F8
S2050003DD24F6
S2050003DE51C8
S2050003DF0018
S2050003E023F4
S2050003E126F0
S2050003E261B4
S2050003E30014
S2050003E423F0
S2050003E528EA
S2050003E671A0
S2050003E70010
S2050003E823EC
S2050003E92AE4
S2050003EAA16C
S2050003EB000C
S2050003EC23E8
S2050003ED2CDE
S2050003EEB158
S2050003EF0008
S2050003F023E4
S2050003F12ED8
S2050003F2C144
S2050003F30004
S2050003F423E0
S2050003F520E2
S2050003F6D130
S2050003F702FE
S2050003F823DC
S2050003F922DC
S2050003FAE11C
S2050003FB02FA
S2050003FC23D8
S2050003FD24D6
S2050003FEF108
S2050003FF02F6
S20500040023D3
S20500040126CF
S20500040201F3
S20500040303F0
S20500040423CF
S20500040528C9
S20500040611DF
S20500040703EC
S20500040823CB
S2050004092AC3
S20500040AC12B
S20500040B03E8
S20500040C23C7
S20500040D2CBD
S20500040ED117
S20500040F03E4
S20500041023C3
S2050004112EB7
S205000412E103
S20500041303E0
S20500041423BF
S20500041520C1
S205000416F1EF
S20500041705DA
S205000418736B
S2050004192EAF
S20500041A00DC
S20500041B7B60
S20500041CF3E7
S20500041D2EAB
S20500041E10C8
S20500041F7B5C
S2050004207363
S2050004212FA6
S20500042220B4
S2050004237B58
S20500042423AF
S20500042522AF
S205000426C10F
S20500042705CA
S20500042823AB
S20500042924A9
S20500042AD1FB
S20500042B05C6
S20500042C23A7
S20500042D26A3
S20500042EE1E7
S20500042F05C2
S2050004307353
S2050004312E97
S2050004324084
S2050004337B48
S205000434F3CF
S2050004352E93
S2050004365070
S2050004377B44
S205000438734B
S2050004392F8E
S20500043A605C
S20500043B7B40
S20500043C2397
S20500043D2891
S20500043EC1F7
S20500043F05B2
S2050004402393
S2050004412A8B
S205000442D1E3
S20500044305AE
S205000444238F
S2050004452C85
S205000446E1CF
S20500044705AA
S2050004486747
S205000449802D
S20500044A00AC
S20500044B00AB
S20500044C03A7
S20500044D2E7B
S20500044E01A7
S20500044F05A2
S2050004508323
S2050004512E77
S2050004524163
S205000453059E
S205000454039F
S2050004552F72
S205000456811F
S205000457059A
S205000458732B
S205000459108D
S20500045A4E4E
S20500045B7B20
S20500045C7327
S20500045D9009
S20500045E5E3A
S20500045F7B1C
S2050004607323
S2050004611085
S2050004626F25
S2050004637B18
S205000464038F
S2050004652E63
S205000466414F
S205000467048B
S205000468830B
S2050004692E5F
S20500046A810B
S20500046B0487
S20500046C0387
S20500046D2F5A
S20500046EC1C7
S20500046F0483
S2050004707313
S2050004711075
S2050004720E76
S2050004737B08
S205000474730F
S20500047590F1
S2050004761E62
S2050004777B04
S205000478730B
S205000479106D
S20500047A2F4D
S20500047B7B00
S20500047C83F7
S20500047D2158
S20500047E0177
S20500047F0077
S2050004800373
S2050004812253
S2050004824133
S2050004830073
S20500048483EF
S205000485224F
S20500048681EF
S205000487006F
S205000488036B
S205000489234A
S20500048AC1AB
S20500048B006B
S20500048C83E7
S20500048D2346
S20500048E0167
S20500048F0166
S2050004900363
S2050004912540
S2050004924123
S2050004930162
S20500049483DF
S205000495253C
S20500049681DF
S205000497015E
S205000498035B
S2050004992637
S20500049AC19B
S20500049B015A
S20500049C83D7
S20500049D2633
S20500049E0157
S20500049F0255
S2050004A00353
S2050004A1272E
S2050004A24113
S2050004A30251
S2050004A483CF
S2050004A5272A
S2050004A681CF
S2050004A7024D
S2050004A8034B
S2050004A92825
S2050004AAC18B
S2050004AB0249
S2050004AC83C7
S2050004AD2821
S2050004AE0147
S2050004AF0344
S2050004B00343
S2050004B12E17
S2050004B24103
S2050004B30340
S2050004B483BF
S2050004B52E13
S2050004B681BF
S2050004B7033C
S2050004B8033B
S2050004B92F0E
S2050004BAC17B
S2050004BB0338
S2050004BC83B7
S2050004BD2F0A
S2050004BE0137
S2050004BF0433
S2050004C083B3
S2050004C12015
S2050004C2C173
S2050004C3052E
S2050004C4131F
S2050004C50130
S2050004C6012F
S2050004C70629
S2050004C873BB
S2050004C9002D
S2050004CA200C
S2050004CB30FB
S2050004CC67C3
S2050004CD80A9
S2050004CE0028
S2050004CF0027
S2050004D00026
S2050004D10025
S2050004D20024
S2050004D30023
S2050004D40022
S2050004D50021
S2050004D60020
S2050004D7001F
S2050004D8001E
S2050004D9001D
S2050004DA001C
S2050004DB001B
S2050004DC001A
S2050004DD0019
S2050004DE0018
S2050004DF0017
S2050004E01303
S2050004E10114
S2050004E20113
S2050004E3FF14
S2050004E423EF
S2050004E526EB
S2050004E611FF
S2050004E7000F
S2050004E8EF1F
S2050004E9000D
S2050004EAC04C
S2050004EB56B5
S2050004ECEF1B
S2050004ED0009
S2050004EE8088
S2050004EF58AF
S2050004F0EF17
S2050004F10005
S2050004F2C044
S2050004F356AD
S2050004F4639F
S2050004F50CF5
S2050004F605FB
S2050004F700FF
S2050004F8EF0F
S2050004F900FD
S2050004FA00FC
S2050004FB5C9F
S2050004FC8377
S2050004FD20D9
S2050004FEC137
S2050004FF00F7
S20500050013E2
S20500050105EF
S20500050200F3
S20500050300F2
S20500050413DE
S20500050501EF
S20500050601EE
S20500050701ED
S2050005086786
S205000509806C
S20500050A00EB
S20500050B00EA
S20500050C37B2
S20500050D05E3
S20500050E10D7
S20500050F00E6
S20500051013D2
S20500051105DF
S20500051205DE
S20500051300E2
S205000514EFF2
S20500051500E0
S20500051610CF
S2050005174F8F
S2050005186F6E
S205000519F0EC
S20500051A1FBC
S20500051BFEDC
S20500051C37A2
S20500051D5781
S20500051E10C7
S20500051F1ABC
S2050005208352
S20500052127AD
S205000522C70C
S20500052300D2
S205000524933E
S205000525F6DA
S20500052607C8
S20500052702CC
S205000528636A
S2050005298448
S20500052A06C5
S20500052B04C6
S20500052CB712
S20500052D07C1
S20500052E10B7
S20500052F00C6
S2050005309332
S20500053106BE
S2050005328043
S20500053303BF
S205000534A31E
S205000535863A
S205000536D7E8
S2050005371EA0
S205000538932A
S20500053907B5
S20500053A00BB
S20500053B08B2
S20500053C2396
S20500053D2296
S20500053EF7C0
S20500053F00B6
S205000540B7FE
S20500054107AD
S20500054210A3
S20500054300B2
S205000544238E
S2050005458927
S20500054607A8
S2050005471E90
S205000548B7F6
S2050005495656
S20500054A109B
S20500054B1A90
S20500054C8326
S20500054DA701
S20500054E4661
S20500054F01A5
S205000550376E
S205000551475D
S2050005521093
S2050005531A88
S205000554930E
S205000555E7B9
S2050005561788
S205000557009E
S205000558237A
S205000559AAF2
S20500055AF6A5
S20500055B009A
S20500055C8316
S20500055D2771
S20500055EC7D0
S20500055F0096
S205000560B7DE
S205000561068E
S2050005628013
S2050005630092
S205000564B3DE
S205000565E7A9
S205000566D7B8
S205000567008E
S205000568236A
S2050005692666
S20500056AF794
S20500056B008A
S20500056C6722
S20500056D8008
S20500056E0087
S20500056F0086
S20500057093F2
S205000571F78D
S205000572077C
S205000573087A
S205000574631E
S2050005759AE6
S2050005760778
S2050005770678
S205000578B7C6
S2050005790775
S20500057A106B
S20500057B007A
S20500057C0376
S20500057DC6B2
S20500057E2750
S20500057F1F57
S20500058093E2
S205000581066E
S2050005822053
S2050005830072
S205000584630E
S2050005850868
S205000586D699
S2050005870866
S205000588036A
S205000589C6A6
S20500058A2744
S20500058B1F4B
S20500058C93D6
S20500058D0662
S20500058E1057
S20500058F0066
S205000590E382
S2050005911C48
S205000592D68D
S205000593FA68
S205000594B7AA
S205000595065A
S205000596104F
S205000597005E
S205000598035A
S205000599C696
S20500059AC695
S20500059B1E3C
S20500059C63F6
S20500059D1A3E
S20500059E0651
S20500059F1046
S2050005A0B79E
S2050005A1064E
S2050005A21043
S2050005A30052
S2050005A4034E
S2050005A5252B
S2050005A687C8
S2050005A7004E
S2050005A883CA
S2050005A9C587
S2050005AAF655
S2050005AB1E2C
S2050005AC3712
S2050005AD0741
S2050005AE1037
S2050005AF0046
S2050005B01332
S2050005B1073D
S2050005B287BC
S2050005B3162C
S2050005B4132E
S2050005B586BA
S2050005B6152A
S2050005B7003E
S2050005B8132A
S2050005B976C6
S2050005BAF645
S2050005BB0F2B
S2050005BC3306
S2050005BD0731
S2050005BEB780
S2050005BF0036
S2050005C0A392
S2050005C187AD
S2050005C2C66D
S2050005C31E14
S2050005C4230E
S2050005C50030
S2050005C6A788
S2050005C7002E
S2050005C837F6
S2050005C90725
S2050005CA101B
S2050005CB002A
S2050005CC83A6
S2050005CDC662
S2050005CEF631
S2050005CF1E08
S2050005D00322
S2050005D147DD
S2050005D2E73C
S2050005D31E04
S2050005D463BE
S2050005D5F42C
S2050005D6E639
S2050005D70E10
S2050005D8B766
S2050005D957C5
S2050005DA100B
S2050005DB1A00
S2050005DC1306
S2050005DD0711
S2050005DE0017
S2050005DF0214
S2050005E023F2
S2050005E1AA6A
S2050005E2E72C
S2050005E30012
S2050005E46FA2
S2050005E5F020
S2050005E65FB0
S2050005E7F618
S2050005E8B756
S2050005E90705
S2050005EA10FB
S2050005EB000A
S2050005EC8386
S2050005EDC642
S2050005EE27E0
S2050005EF1FE7
S2050005F013F2
S2050005F107FD
S2050005F220E3
S2050005F30002
S2050005F4639E
S2050005F58080
S2050005F6E619
S2050005F706F8
S2050005F837C6
S2050005F957A5
S2050005FA10EB
S2050005FB1AE0
S2050005FC9366
S2050005FD06F2
S2050005FE00F7
S2050005FF04F2
S20500060023D1
S2050006012AC9
S205000602D71B
S20500060300F1
S205000604935D
S20500060506E9
S20500060600EE
S20500060708E5
S20500060823C9
S20500060922C9
S20500060AD713
S20500060B00E9
S20500060C23C5
S20500060D895E
S20500060E07DF
S20500060F1EC7
S2050006106F75
S205000611F0F3
S2050006129F43
S205000613F3EE
S205000614B729
S20500061506D9
S20500061610CE
S20500061700DD
S20500061837A5
S20500061906D5
S20500061A10CA
S20500061B00D9
S20500061C8355
S20500061DC512
S20500061EF6E0
S20500061F1EB7
S20500062003D1
S205000621468D
S205000622E6EC
S2050006231EB3
S205000624636D
S205000625EEE1
S205000626C509
S20500062704C9
S205000628B715
S20500062906C5
S20500062A10BA
S20500062B00C9
S20500062C8345
S20500062DC601
S20500062E16B0
S20500062F1FA6
S205000630E3E1
S205000631962D
S20500063206BC
S205000633FCC5
S205000634B709
S20500063506B9
S20500063610AE
S20500063700BD
S20500063813A9
S20500063906B5
S20500063A10AA
S20500063B00B9
S20500063C2395
S20500063D882F
S20500063EC6F0
S20500063F1E97
S2050006409321
S20500064106AD
S20500064200B2
S20500064308A9
S205000644238D
S205000645228D
S205000646D7D7
S20500064700AD
S2050006482389
S2050006492A81
S20500064AD7D3
S20500064B00A9
S20500064C2385
S20500064D891E
S20500064E079F
S20500064F1E87
S2050006506F35
S205000651F0B3
S2050006529F03
S205000653EFB2
S2050006543769
S2050006550798
S205000656108E
S205000657009D
S2050006580399
S2050006594754
S20500065AF7A3
S20500065B1E7B
S20500065C6335
S20500065D1A7D
S20500065E078F
S20500065F0095
S205000660375D
S205000661078C
S2050006621082
S2050006630091
S20500066493FD
S2050006650689
S205000666008E
S205000667028B
S205000668A3E9
S2050006690685
S20500066AD7B3
S20500066B1E6B
S20500066C6F19
S20500066DF097
S20500066EDFA7
S20500066FF88D
S205000670374D
S205000671077C
S2050006721072
S2050006730081
S20500067493ED
S2050006750679
S205000676007E
S205000677037A
S205000678A3D9
S2050006790675
S20500067AD7A3
S20500067B1E5B
S20500067C6F09
S20500067DF087
S20500067EDF97
S20500067FF77E
S20500068083F1
S205000681C7AC
S205000682F67C
S2050006831E53
S2050006843739
S2050006850669
S205000686105E
S205000687006D
S2050006881359
S2050006890665
S20500068A86E4
S20500068B1653
S20500068C3335
S20500068D0661
S20500068EF670
S20500068F0065
S2050006900361
S205000691461D
S205000692065C
S2050006930061
S20500069493CD
S20500069587D8
S2050006961747
S205000697005D
S20500069893C9
S205000699F764
S20500069AF763
S20500069B0F4A
S20500069CA3B5
S20500069D87D0
S20500069EF660
S20500069F1E37
S2050006A02331
S2050006A1282B
S2050006A2C78B
S2050006A30051
S2050006A493BD
S2050006A50748
S2050006A6004E
S2050006A7014C
S2050006A82329
S2050006A92A21
S2050006AAF753
S2050006AB0049
S2050006AC6FD9
S2050006ADF057
S2050006AEDF67
S2050006AFE95C
S2050006B02321
S2050006B186BD
S2050006B2063C
S2050006B31E23
S2050006B4B789
S2050006B50639
S2050006B6102E
S2050006B7003D
S2050006B86FCD
S2050006B9F04B
S2050006BA1F1B
S2050006BBF148
S2050006BC3701
S2050006BD0730
S2050006BE1026
S2050006BF0035
S2050006C00331
S2050006C147EC
S2050006C2171B
S2050006C31F12
S2050006C4E34D
S2050006C51A15
S2050006C60727
S2050006C7F23B
S2050006C837F5
S2050006C90724
S2050006CA101A
S2050006CB0029
S2050006CC9395
S2050006CD0621
S2050006CE1016
S2050006CF0025
S2050006D02301
S2050006D1081B
S2050006D2D74B
S2050006D31E03
S2050006D437E9
S2050006D557C8
S2050006D6100E
S2050006D71A03
S2050006D89389
S2050006D90615
S2050006DA001A
S2050006DB0811
S2050006DC23F5
S2050006DD22F5
S2050006DED73F
S2050006DF0015
S2050006E023F1
S2050006E12AE9
S2050006E2D73B
S2050006E30011
S2050006E423ED
S2050006E58986
S2050006E60707
S2050006E71EEF
S2050006E86F9D
S2050006E9F01B
S2050006EA1FEB
S2050006EBE623
S2050006EC67A1
S2050006ED8087
S2050006EE0006
S2050006EF0005
S2050006F0B74D
S2050006F117EC
S2050006F210F2
S2050006F31AE7
S2050006F4837D
S2050006F5A758
S2050006F68777
S2050006F701FC
S2050006F813E9
S2050006F907F4
S2050006FA10EA
S2050006FB00F9
S2050006FC6395
S2050006FD8A6D
S2050006FEE70F
S2050006FF06EF
S20500070013E0
S20500070107EB
S20500070200F1
S20500070300F0
S205000704935C
S20500070506E8
S20500070610DD
S20500070700EC
S2050007089358
S205000709D713
S20500070A17D2
S20500070B00E8
S20500070C13D4
S20500070D07DF
S20500070E17CE
S20500070F00E4
S205000710E300
S2050007119C46
S205000712D70A
S205000713FEE2
S205000714B728
S20500071507D7
S20500071610CD
S20500071700DC
S20500071813C8
S20500071917C3
S20500071A27B2
S20500071B00D8
S20500071C9344
S20500071D874F
S20500071E874E
S20500071F0DC7
S205000720B320
S205000721874B
S205000722E7EA
S20500072300D0
S205000724834C
S205000725A727
S20500072607C6
S20500072700CC
S2050007286368
S2050007298842
S20500072A07C2
S20500072B02C6
S20500072C13B4
S20500072D01C5
S20500072E01C4
S20500072FFFC5
S20500073023A0
S205000731269C
S20500073211B0
S20500073300C0
S205000734E7D8
S205000735803E
S20500073607B6
S20500073700BC
S2050007383784
S2050007394773
S20500073A10A9
S20500073B1A9E
S20500073C8334
S20500073D278F
S20500073EC7EE
S20500073F00B4
S2050007408330
S2050007412092
S205000742C1F0
S20500074300B0
S205000744B7F8
S20500074506A8
S20500074600AD
S20500074702AA
S205000748B3F8
S205000749E7C3
S20500074AD7D2
S20500074B00A8
S20500074C2384
S20500074D2680
S20500074EF7AE
S20500074F00A4
S2050007501390
S20500075101A1
S20500075201A0
S205000753019F
S2050007546738
S205000755801E
S205000756009D
S205000757009C
S2050007583764
S2050007594753
S20500075A1089
S20500075B1A7E
S20500075C8314
S20500075D276F
S20500075EC7CE
S20500075F0094
S205000760B7DC
S205000761068C
S2050007620091
S205000763028E
S205000764B3DC
S205000765E7A7
S205000766D7B6
S205000767008C
S2050007682368
S2050007692664
S20500076AF792
S20500076B0088
S20500076C6720
S20500076D8006
S20500076E0085
S20500076F0084
S2050007701370
S205000771077B
S2050007720081
S2050007730080
S2050007746F10
S205000775F08E
S2050007761F5E
S205000777FA82
S205000778B7C4
S2050007790674
S20500077A1069
S20500077B0078
S20500077C0374
S20500077DC7AF
S20500077E363F
S20500077F1F55
S205000780373C
S205000781066C
S2050007821061
S2050007830070
S20500078483EC
S2050007852549
S2050007864627
S2050007871F4D
S20500078893D8
S2050007890763
S20500078A1752
S20500078B0563
S20500078C93D4
S20500078DF76F
S20500078EF76E
S20500078F0F55
S2050007901350
S205000791055D
S205000792C0A1
S2050007930759
S20500079463FC
S20500079578E6
S205000796F568
S205000797005C
S2050007981348
S2050007990753
S20500079A4712
S20500079BFD5B
S20500079C93C4
S20500079D77DF
S20500079EF75E
S20500079F0F45
S2050007A093C0
S2050007A185CD
S2050007A2153C
S2050007A30050
S2050007A4232C
S2050007A52A24
S2050007A6B697
S2050007A71E2E
S2050007A83714
S2050007A90644
S2050007AA1039
S2050007AB0048
S2050007AC0344
S2050007AD271F
S2050007AE86BF
S2050007AF1F25
S2050007B0A3A0
S2050007B189B9
S2050007B2F64B
S2050007B31E22
S2050007B4B788
S2050007B546F8
S2050007B6102D
S2050007B71A22
S2050007B893A8
S2050007B90733
S2050007BA1722
S2050007BB0038
S2050007BC2314
S2050007BD2C0A
S2050007BEF63F
S2050007BF1E16
S2050007C083B0
S2050007C1A78B
S2050007C2C66B
S2050007C30030
S2050007C437F8
S2050007C50727
S2050007C6002D
S2050007C7200C
S2050007C8B378
S2050007C9E743
S2050007CAE742
S2050007CB0028
S2050007CC2304
S2050007CDA680
S2050007CEF62F
S2050007CF0024
S2050007D067BC
S2050007D180A2
S2050007D20021
S2050007D30020
S2050007D437E8
S2050007D5031B
S2050007D6100D
S2050007D7001C
S2050007D88398
S2050007D945D5
S2050007DAC356
S2050007DB1FF9
S2050007DC9384
S2050007DD070F
S2050007DEF025
S2050007DF0113
S2050007E063B0
S2050007E1888A
S2050007E2F51C
S2050007E3060A
S2050007E4B758
S2050007E50707
S2050007E610FD
S2050007E7000C
S2050007E89378
S2050007E98783
S2050007EA8782
S2050007EB18F0
S2050007EC13F4
S2050007ED8680
S2050007EE07FE
S2050007EF0400
S2050007F013F0
S2050007F107FB
S2050007F20001
S2050007F30000
S2050007F437C8
S2050007F515E9
S2050007F610ED
S2050007F71AE2
S2050007F89368
S2050007F908F2
S2050007FA10E9
S2050007FB00F8
S2050007FC8374
S2050007FDC630
S2050007FE07EE
S2050007FF00F4
S205000800638F
S2050008018071
S20500080206EA
S20500080302ED
S205000804836B
S205000805C627
S20500080617D5
S20500080700EB
S2050008086387
S2050008099C4D
S20500080AB632
S20500080B00E7
S20500080C03E3
S20500080D28BD
S20500080E855F
S20500080F00E3
S205000810B32F
S205000811964B
S205000812E8F8
S20500081300DF
S205000814934B
S205000815C617
S205000816F6E6
S205000817FFDC
S205000818B327
S205000819F6E3
S20500081A06D2
S20500081B01D6
S20500081C23B3
S20500081D24B1
S20500081ED5FF
S20500081F00D3
S205000820933F
S205000821874A
S20500082227A9
S20500082300CF
S20500082413BB
S20500082507C6
S20500082617B5
S20500082700CB
S205000828E3E7
S2050008299A2F
S20500082AC701
S20500082BFCCB
S20500082C9333
S20500082D8540
S20500082E15AF
S20500082F00C3
S205000830932F
S205000831F5CC
S205000832F5CB
S2050008330FB0
S205000834239B
S2050008350EAF
S205000836B309
S2050008371E9D
S2050008383783
S2050008394772
S20500083A10A8
S20500083B1A9D
S20500083C8333
S20500083D278E
S20500083EC7ED
S20500083F00B3
S205000840B7FB
S20500084106AB
S20500084200B0
S205000843802F
S205000844B3FB
S205000845E7C6
S205000846D7D5
S20500084700AB
S2050008482387
S2050008492683
S20500084AF7B1
S20500084B00A7
S20500084C673F
S20500084D8025
S20500084E00A4
S20500084F00A3
S205000850B7EB
S205000851079A
S2050008521090
S205000853009F
S205000854930B
S2050008558716
S2050008568715
S2050008571883
S2050008581387
S2050008598514
S20500085A0791
S20500085B0493
S20500085C1383
S20500085D078E
S20500085E0094
S20500085F0093
S205000860375B
S2050008611879
S2050008621080
S2050008631A75
S20500086493FB
S2050008650588
S205000866107C
S205000867008B
S2050008680387
S205000869C6C3
S20500086A0781
S20500086B0087
S20500086CB3D3
S20500086D96EF
S20500086EE59F
S20500086F0083
S20500087093EF
S20500087187FA
S2050008722759
S205000873007F
S205000874631B
S2050008750875
S2050008760676
S205000877007B
S2050008780377
S2050008792653
S20500087A88F0
S20500087B0077
S20500087CB3C3
S20500087DE68F
S20500087EC6AE
S20500087F0073
S205000880234F
S205000881244D
S205000882D898
S205000883006F
S205000884135B
S2050008850766
S2050008861755
S205000887006B
S205000888E387
S20500088990D9
S20500088AA7C1
S20500088BFE69
S20500088C93D3
S20500088D0560
S20500088E0064
S20500088F0063
S205000890233F
S2050008910E53
S205000892B3AD
S2050008931E41
S2050008943727
S2050008954716
S205000896104C
S2050008971A41
S20500089883D7
S2050008992732
S20500089AC791
S20500089B0057
S20500089CB79F
S20500089D064F
S20500089E0054
S20500089F80D3
S2050008A0B39F
S2050008A1E76A
S2050008A2D779
S2050008A3004F
S2050008A4232B
S2050008A52627
S2050008A6F755
S2050008A7004B
S2050008A867E3
S2050008A980C9
S2050008AA0048
S2050008AB0047
S2050008AC1333
S2050008AD0144
S2050008AE0143
S2050008AFFF44
S2050008B0231F
S2050008B1261B
S2050008B2E15F
S2050008B3003F
S2050008B4231B
S2050008B52419
S2050008B6F14B
S2050008B7003B
S2050008B81327
S2050008B90138
S2050008BA41F7
S2050008BBF740
S2050008BC2313
S2050008BD2015
S2050008BE2113
S2050008BF0033
S2050008C0230F
S2050008C1220F
S2050008C231FF
S2050008C3002F
S2050008C4230B
S2050008C52409
S2050008C641EB
S2050008C7002B
S2050008C82307
S2050008C92603
S2050008CA51D7
S2050008CB0027
S2050008CC2303
S2050008CD28FD
S2050008CE61C3
S2050008CF0023
S2050008D023FF
S2050008D12AF7
S2050008D271AF
S2050008D3001F
S2050008D423FB
S2050008D52CF1
S2050008D6819B
S2050008D7001B
S2050008D823F7
S2050008D92EEB
S2050008DA9187
S2050008DB0017
S2050008DC23F3
S2050008DD20F5
S2050008DEA173
S2050008DF0211
S2050008E023EF
S2050008E122EF
S2050008E2B15F
S2050008E3020D
S2050008E423EB
S2050008E524E9
S2050008E6C14B
S2050008E70209
S2050008E823E7
S2050008E926E3
S2050008EAD137
S2050008EB0205
S2050008EC23E3
S2050008ED28DD
S2050008EEE123
S2050008EF0201
S2050008F023DF
S2050008F12AD7
S2050008F2F10F
S2050008F302FD
S2050008F423DB
S2050008F52CD1
S2050008F601FB
S2050008F703F8
S2050008F823D7
S2050008F92ECB
S2050008FA11E7
S2050008FB03F4
S2050008FC23D3
S2050008FD20D5
S2050008FE21D3
S2050008FF05EE
S20500090023CE
S20500090122CE
S20500090231BE
S20500090305E9
S20500090423CA
S20500090524C8
S20500090641AA
S20500090705E5
S20500090823C6
S20500090926C2
S20500090A5196
S20500090B05E1
S20500090C23C2
S20500090D28BC
S20500090E6182
S20500090F05DD
S20500091023BE
S2050009112AB6
S205000912716E
S20500091305D9
S20500091423BA
S2050009152CB0
S205000916815A
S20500091705D5
S20500091823B6
S2050009192EAA
S20500091A9146
S20500091B05D1
S20500091C23B2
S20500091D20B4
S20500091EA132
S20500091F07CB
S20500092023AE
S20500092122AE
S205000922B11E
S20500092307C7
S20500092423AA
S20500092524A8
S205000926C10A
S20500092707C3
S20500092823A6
S20500092926A2
S20500092AD1F6
S20500092B07BF
S20500092C23A2
S20500092D289C
S20500092EE1E2
S20500092F07BB
S205000930239E
S2050009312A96
S205000932F1CE
S20500093307B7
S205000934F3CA
S2050009352F8D
S20500093610AB
S2050009373486
S2050009382396
S2050009392C8C
S20500093AF1C6
S20500093B07AF
S20500093CF3C2
S20500093D2F85
S20500093E2093
S20500093F347E
S205000940238E
S2050009412E82
S205000942F1BE
S20500094307A7
S205000944B7F6
S20500094507A5
S205000946109B
S20500094700AA
S2050009489316
S2050009498721
S20500094A07A0
S20500094B2086
S20500094C1392
S20500094D079D
S20500094E8023
S20500094F00A2
S205000950237E
S205000951A000
S2050009522778
S205000953009E
S205000954EFAE
S205000955009C
S205000956009B
S2050009570D8D
S205000958B7E2
S2050009590F89
S20500095A0196
S20500095B0096
S20500095C9302
S20500095D8F05
S20500095E0F84
S20500095FE0B2
S205000960731E
S2050009615040
S205000962048B
S205000963305E
S205000964632A
S2050009654646
S2050009660586
S205000967008A
S2050009682366
S2050009692068
S20500096AE5A2
S20500096B0086
S20500096C7312
S20500096D0084
S20500096E5033
S20500096F1072
S205000970235E
S205000971A0E0
S205000972EF90
S205000973007E
S205000974730A
S205000975007C
S205000976502B
S205000977106A
S2050009780376
S2050009792751
S20500097AC1B6
S20500097B0076
S20500097C83F2
S20500097D274D
S20500097E81F2
S20500097F0072
S205000980135E
S205000981016F
S205000982016E
S205000983016D
S20500098473FA
S205000985006C
S205000986204B
S205000987303A
S205000988B7B2
S2050009890761
S20500098A1057
S20500098B0066
S20500098C93D2
S20500098D87DD
S20500098E075C
S20500098F2042
S205000990035E
S205000991A1BF
S2050009920758
S205000993005E
S20500099483DA
S2050009952F2D
S205000996C19A
S2050009970753
S20500099873E6
S20500099990C8
S20500099A2F28
S20500099B3422
S20500099C83D2
S20500099D2F25
S20500099E81D2
S20500099F074B
S2050009A073DE
S2050009A190C0
S2050009A21F30
S2050009A3341A
S2050009A483CA
S2050009A5212B
S2050009A6410A
S2050009A7004A
S2050009A80346
S2050009A92226
S2050009AA81C6
S2050009AB0046
S2050009AC83C2
S2050009AD2222
S2050009AEC182
S2050009AF0042
S2050009B0033E
S2050009B1231D
S2050009B2013E
S2050009B3013D
S2050009B483BA
S2050009B52319
S2050009B641FA
S2050009B70139
S2050009B80336
S2050009B92414
S2050009BA81B6
S2050009BB0135
S2050009BC83B2
S2050009BD2410
S2050009BEC172
S2050009BF0131
S2050009C0032E
S2050009C1250B
S2050009C2012E
S2050009C3022C
S2050009C483AA
S2050009C52507
S2050009C641EA
S2050009C70228
S2050009C80326
S2050009C92602
S2050009CA81A6
S2050009CB0224
S2050009CC83A2
S2050009CD26FE
S2050009CEC162
S2050009CF0220
S2050009D0031E
S2050009D127F9
S2050009D2011E
S2050009D3031B
S2050009D4839A
S2050009D527F5
S2050009D641DA
S2050009D70317
S2050009D80316
S2050009D928F0
S2050009DA8196
S2050009DB0313
S2050009DC8392
S2050009DD28EC
S2050009DEC152
S2050009DF030F
S2050009E0030E
S2050009E129E7
S2050009E2010E
S2050009E3040A
S2050009E4838A
S2050009E529E3
S2050009E641CA
S2050009E70406
S2050009E80306
S2050009E92ADE
S2050009EA8186
S2050009EB0402
S2050009EC8382
S2050009ED2ADA
S2050009EEC142
S2050009EF04FE
S2050009F003FE
S2050009F12BD5
S2050009F201FE
S2050009F305F9
S2050009F4837A
S2050009F52BD1
S2050009F641BA
S2050009F705F5
S2050009F803F6
S2050009F92CCC
S2050009FA8176
S2050009FB05F1
S2050009FC8372
S2050009FD2CC8
S2050009FEC132
S2050009FF05ED
S205000A0003ED
S205000A012DC2
S205000A0201ED
S205000A0306E7
S205000A048369
S205000A052DBE
S205000A0641A9
S205000A0706E3
S205000A0803E5
S205000A092EB9
S205000A0A8165
S205000A0B06DF
S205000A0C8361
S205000A0D2EB5
S205000A0EC121
S205000A0F06DB
S205000A1003DD
S205000A112FB0
S205000A1201DD
S205000A1307D6
S205000A148359
S205000A152FAC
S205000A164199
S205000A1707D2
S205000A1803D5
S205000A1921B6
S205000A1A01D5
S205000A1B00D5
S205000A1C13C1
S205000A1D01D2
S205000A1EC111
S205000A1F08C9
S205000A206769
S205000A21804F
S205000A2200CE
S205000A2300CD
S205000A2413B9
S205000A2501CA
S205000A2601C9
S205000A27FFCA
S205000A2823A5
S205000A2926A1
S205000A2A11B5
S205000A2B00C5
S205000A2CEFD5
S205000A2D00C3
S205000A2EC002
S205000A2F03BE
S205000A3013AD
S205000A3107B8
S205000A32209E
S205000A3300BD
S205000A349329
S205000A3507B4
S205000A36F0CA
S205000A37FFBA
S205000A386355
S205000A394671
S205000A3AA70F
S205000A3B00B5
S205000A3CB7FD
S205000A3D07AC
S205000A3E01B1
S205000A3F00B1
S205000A40931D
S205000A418728
S205000A42C7E7
S205000A43F0BD
S205000A448329
S205000A45208B
S205000A46C1E9
S205000A4700A9
S205000A481395
S205000A498522
S205000A4A079F
S205000A4B00A5
S205000A4C1391
S205000A4D01A2
S205000A4E01A1
S205000A4F01A0
S205000A506739
S205000A51801F
S205000A52009E
S205000A53009D
S205000A547329
S205000A55603B
S205000A560496
S205000A573069
S205000A586731
S205000A598017
S205000A5A0096
S205000A5B0095
S205000A5C7321
S205000A5D256E
S205000A5E4052
S205000A5FF1A0
S205000A60137D
S205000A61751A
S205000A62F599
S205000A63008D
S205000A646725
S205000A65800B
S205000A66008A
S205000A670089
S205000A687315
S205000A692562
S205000A6A4046
S205000A6BFC89
S205000A6C1371
S205000A6D750E
S205000A6EF58D
S205000A6F0081
S205000A706719
S205000A7180FF
S205000A72007E
S205000A73007D
S205000A741369
S205000A75017A
S205000A760179
S205000A77FF7A
S205000A782355
S205000A792651
S205000A7A1165
S205000A7B0075
S205000A7C7301
S205000A7D5023
S205000A7E046E
S205000A7F3041
S205000A80EF81
S205000A81F07F
S205000A82DF8F
S205000A83FD70
S205000A843735
S205000A850764
S205000A86105A
S205000A870069
S205000A881355
S205000A891552
S205000A8A2541
S205000A8B0065
S205000A8CB7AD
S205000A8D075C
S205000A8E1052
S205000A8F0061
S205000A90134D
S205000A910758
S205000A924717
S205000A931D40
S205000A9483D9
S205000A95203B
S205000A96C199
S205000A970059
S205000A983325
S205000A990750
S205000A9AA7AF
S205000A9B0055
S205000A9C93C1
S205000A9D87CC
S205000A9E87CB
S205000A9F1C35
S205000AA0232D
S205000AA1202F
S205000AA20747
S205000AA3004D
S205000AA4B399
S205000AA587C4
S205000AA6A7A3
S205000AA70049
S205000AA81335
S205000AA90740
S205000AAA1036
S205000AAB0045
S205000AAC2321
S205000AADA0A3
S205000AAEE75B
S205000AAF0041
S205000AB0132D
S205000AB1013E
S205000AB2013D
S205000AB3013C
S205000AB467D5
S205000AB580BB
S205000AB6003A
S205000AB70039
S205000AB81325
S205000AB90136
S205000ABA0135
S205000ABBFE37
S205000ABC2311
S205000ABD2A09
S205000ABE91A1
S205000ABF0031
S205000AC0230D
S205000AC12807
S205000AC2210D
S205000AC3012C
S205000AC42309
S205000AC52605
S205000AC631F9
S205000AC70128
S205000AC82305
S205000AC92EF9
S205000ACA1115
S205000ACB0025
S205000ACC2301
S205000ACD2CF7
S205000ACE81A1
S205000ACF0021
S205000AD023FD
S205000AD124FB
S205000AD241DD
S205000AD3011C
S205000AD423F9
S205000AD522F9
S205000AD651C9
S205000AD70118
S205000AD823F5
S205000AD920F7
S205000ADA61B5
S205000ADB0114
S205000ADCB75D
S205000ADD040F
S205000ADE1002
S205000ADF0011
S205000AE0EF21
S205000AE1F01F
S205000AE2DF2F
S205000AE3F716
S205000AE49379
S205000AE58784
S205000AE68486
S205000AE71CED
S205000AE813F5
S205000AE919EE
S205000AEA25E1
S205000AEB0005
S205000AECB351
S205000AED877C
S205000AEE27DB
S205000AEF0100
S205000AF0837D
S205000AF1A956
S205000AF207F7
S205000AF300FD
S205000AF49369
S205000AF507F4
S205000AF610EA
S205000AF700F9
S205000AF86395
S205000AF98671
S205000AFAF9FD
S205000AFB02F3
S205000AFC8371
S205000AFD20D3
S205000AFEC131
S205000AFF01F0
S205000B0003EC
S205000B0124CA
S205000B02816C
S205000B0301EB
S205000B048368
S205000B0524C6
S205000B0641A8
S205000B0701E7
S205000B0803E4
S205000B0929BD
S205000B0A01E4
S205000B0B01E3
S205000B0C8360
S205000B0D29B9
S205000B0EC120
S205000B0F00E0
S205000B1003DC
S205000B112AB4
S205000B12815C
S205000B1300DC
S205000B148358
S205000B152AB0
S205000B164198
S205000B1700D8
S205000B1803D4
S205000B192BAB
S205000B1A01D4
S205000B1B00D4
S205000B1C13C0
S205000B1D01D1
S205000B1E01D0
S205000B1F02CE
S205000B206768
S205000B21804E
S205000B2200CD
S205000B2300CC
S205000B243794
S205000B250BBF
S205000B2610B9
S205000B2700C8
S205000B2813B4
S205000B2904C2
S205000B2A05C0
S205000B2B00C4
S205000B2C13B0
S205000B2D05BD
S205000B2E4B76
S205000B2F20A0
S205000B30EFD0
S205000B3100BE
S205000B32C0FD
S205000B330CB0
S205000B34B704
S205000B3507B3
S205000B3610A9
S205000B3700B8
S205000B383780
S205000B390AAC
S205000B3A10A5
S205000B3B00B4
S205000B3C13A0
S205000B3D872B
S205000B3E476A
S205000B3F1D93
S205000B40139C
S205000B410AA4
S205000B420AA3
S205000B431E8E
S205000B44B3F8
S205000B4506A4
S205000B462A7F
S205000B4701A7
S205000B489314
S205000B498A1C
S205000B4A475E
S205000B4B1D87
S205000B4C3370
S205000B4D079B
S205000B4E277A
S205000B4F019F
S205000B50237C
S205000B51A0FE
S205000B523667
S205000B53019B
S205000B542378
S205000B55207A
S205000B563762
S205000B570197
S205000B589304
S205000B59870F
S205000B5A474E
S205000B5B1D77
S205000B5C9300
S205000B5D8909
S205000B5E840D
S205000B5F1C74
S205000B6093FC
S205000B618608
S205000B62CAC3
S205000B63008C
S205000B6493F8
S205000B658406
S205000B668405
S205000B671C6C
S205000B681374
S205000B690680
S205000B6A1075
S205000B6B0084
S205000B6C0380
S205000B6DA7DB
S205000B6E077A
S205000B6F0080
S205000B7093EC
S205000B7187F7
S205000B724736
S205000B73007C
S205000B746318
S205000B751A60
S205000B760772
S205000B770078
S205000B780374
S205000B79A7CF
S205000B7A0471
S205000B7B0074
S205000B7C6310
S205000B7D165C
S205000B7EC7AA
S205000B7F0070
S205000B80333C
S205000B810767
S205000B822A43
S205000B83016B
S205000B842348
S205000B85204A
S205000B860762
S205000B870068
S205000B8893D4
S205000B8984E2
S205000B8A4421
S205000B8B0064
S205000B8CE380
S205000B8D90D2
S205000B8ED78A
S205000B8FFE62
S205000B90B3AC
S205000B910757
S205000B922A33
S205000B93015B
S205000B9483D8
S205000B95A7B3
S205000B960752
S205000B970058
S205000B981344
S205000B990551
S205000B9A4B0A
S205000B9B2034
S205000B9C63F0
S205000B9D98BA
S205000B9E074A
S205000B9F0050
S205000BA0EF60
S205000BA1004E
S205000BA2C08D
S205000BA30646
S205000BA473D8
S205000BA5004A
S205000BA650F9
S205000BA71038
S205000BA86FD8
S205000BA9F056
S205000BAA5FE6
S205000BABF54F
S205000BACEF54
S205000BAD0042
S205000BAE0041
S205000BAF063A
S205000BB093AC
S205000BB1043A
S205000BB2003D
S205000BB3003C
S205000BB42318
S205000BB5A09A
S205000BB60A2F
S205000BB70038
S205000BB82314
S205000BB9A294
S205000BBA0A2B
S205000BBB0034
S205000BBC2310
S205000BBDA48E
S205000BBE0A27
S205000BBF0030
S205000BC0131C
S205000BC10B23
S205000BC2101D
S205000BC3002C
S205000BC49398
S205000BC50A20
S205000BC630F9
S205000BC70028
S205000BC863C4
S205000BC90620
S205000BCA9491
S205000BCB0024
S205000BCC83A0
S205000BCDA77B
S205000BCE0918
S205000BCF0020
S205000BD063BC
S205000BD1809E
S205000BD267B6
S205000BD30319
S205000BD423F8
S205000BD5A07A
S205000BD60910
S205000BD70018
S205000BD89384
S205000BD98492
S205000BDA1401
S205000BDB0014
S205000BDC9380
S205000BDD8989
S205000BDE49C8
S205000BDF0010
S205000BE0E32C
S205000BE1947A
S205000BE254B9
S205000BE3FF0D
S205000BE433D8
S205000BE50A00
S205000BE62ADF
S205000BE70107
S205000BE823E4
S205000BE920E6
S205000BEA0AFB
S205000BEB0004
S205000BEC6F94
S205000BEDF012
S205000BEE1FE2
S205000BEFF10F
S205000BF013EC
S205000BF18579
S205000BF204F9
S205000BF300FC
S205000BF4EF0C
S205000BF500FA
S205000BF600F9
S205000BF702F6
S205000BF86F88
S205000BF9F006
S205000BFADF16
S205000BFBFDF7
S205000BFC9360
S205000BFD07EB
S205000BFE10E1
S205000BFF00F0
S205000C00AF3F
S205000C0127C6
S205000C02F5F7
S205000C030CDF
S205000C04E307
S205000C059E4B
S205000C0607E1
S205000C07FEE9
S205000C08677F
S205000C098065
S205000C0A00E4
S205000C0B00E3
S205000C0C2FB3
S205000C0D20C1
S205000C0E05DB
S205000C0F0AD5
S205000C106777
S205000C11805D
S205000C1200DC
S205000C1300DB
S205000C149347
S205000C1507D2
S205000C1620B8
S205000C1700D7
S205000C186373
S205000C19D6FF
S205000C1AA72D
S205000C1B00D3
S205000C1C13BF
S205000C1D05CC
S205000C1E00D0
S205000C1F00CF
S205000C206767
S205000C21804D
S205000C2200CC
S205000C2300CB
S205000C24B713
S205000C2505C4
S205000C2601C7
S205000C2700C7
S205000C2813B3
S205000C2915B0
S205000C2A259F
S205000C2B00C3
S205000C2C932F
S205000C2D853C
S205000C2E05BB
S205000C2FF0CF
S205000C3013AB
S205000C3101BC
S205000C3201BB
S205000C33FFBC
S205000C34B307
S205000C3505B4
S205000C36B503
S205000C3700B7
S205000C3813A3
S205000C3905B0
S205000C3A8034
S205000C3B00B3
S205000C3C238F
S205000C3D268B
S205000C3E119F
S205000C3F00AF
S205000C40EFBF
S205000C4100AD
S205000C42406C
S205000C4301AA
S205000C448327
S205000C452089
S205000C46C1E7
S205000C4700A7
S205000C481393
S205000C4905A0
S205000C4A1094
S205000C4B00A3
S205000C4C138F
S205000C4D01A0
S205000C4E019F
S205000C4F019E
S205000C506737
S205000C51801D
S205000C52009C
S205000C53009B
S205000C542377
S205000C55A0F9
S205000C56A5F3
S205000C570097
S205000C58672F
S205000C598015
S205000C5A0094
S205000C5B0093
S205000C5CF39F
S205000C5D256C
S205000C5E1080
S205000C5F345B
S205000C60038B
S205000C61A6E7
S205000C620587
S205000C63008B
S205000C643753
S205000C650584
S205000C661078
S205000C670087
S205000C681373
S205000C690184
S205000C6A0183
S205000C6BFF84
S205000C6C136F
S205000C6D057C
S205000C6E453B
S205000C6F017E
S205000C70235B
S205000C712657
S205000C72116B
S205000C73007B
S205000C74EF8B
S205000C750079
S205000C76C0B8
S205000C773443
S205000C781363
S205000C790570
S205000C7A1064
S205000C7B0073
S205000C7CEF83
S205000C7D0071
S205000C7EC0B0
S205000C7F7CF3
S205000C80135B
S205000C81016C
S205000C82016B
S205000C83FE6D
S205000C842347
S205000C852841
S205000C862147
S205000C870166
S205000C882343
S205000C892441
S205000C8A4123
S205000C8B0162
S205000C8C233F
S205000C8D223F
S205000C8E510F
S205000C8F015E
S205000C90233B
S205000C912E2F
S205000C92114B
S205000C93005B
S205000C942337
S205000C952C2D
S205000C9681D7
S205000C970057
S205000C982333
S205000C992A2B
S205000C9A91C3
S205000C9B0053
S205000C9C232F
S205000C9D262B
S205000C9E311F
S205000C9F014E
S205000CA093BB
S205000CA10A43
S205000CA20547
S205000CA3004B
S205000CA41337
S205000CA589C0
S205000CA60543
S205000CA70047
S205000CA80343
S205000CA94500
S205000CAA053F
S205000CAB0043
S205000CAC132F
S205000CAD7AC7
S205000CAE162A
S205000CAF003F
S205000CB063DB
S205000CB15CE1
S205000CB2B08C
S205000CB30833
S205000CB463D7
S205000CB50E2B
S205000CB60533
S205000CB70E29
S205000CB893A3
S205000CB9072E
S205000CBA0034
S205000CBB0033
S205000CBC939F
S205000CBD87AA
S205000CBE1719
S205000CBF002F
S205000CC033FB
S205000CC187A6
S205000CC2FA32
S205000CC3002B
S205000CC40327
S205000CC547E2
S205000CC60721
S205000CC70027
S205000CC8E343
S205000CC91A0B
S205000CCA071D
S205000CCBFE25
S205000CCC130F
S205000CCD76AB
S205000CCE26FA
S205000CCF001F
S205000CD063BB
S205000CD1CE4F
S205000CD227F5
S205000CD30516
S205000CD49387
S205000CD50910
S205000CD60018
S205000CD70215
S205000CD863B3
S205000CD91AFB
S205000CDA060E
S205000CDB0A09
S205000CDC937F
S205000CDD040D
S205000CDE0010
S205000CDF000F
S205000CE013FB
S205000CE10904
S205000CE2000C
S205000CE3000B
S205000CE413F7
S205000CE58485
S205000CE60AFE
S205000CE70007
S205000CE8EF17
S205000CE90005
S205000CEA8084
S205000CEB6D96
S205000CEC03FF
S205000CED45BC
S205000CEE14EC
S205000CEF00FF
S205000CF013EB
S205000CF107F6
S205000CF204F8
S205000CF300FB
S205000CF413E7
S205000CF504F5
S205000CF614E4
S205000CF700F7
S205000CF8E313
S205000CF918DD
S205000CFA05EF
S205000CFBFEF5
S205000CFCB33F
S205000CFD876A
S205000CFE549C
S205000CFF41AE
S205000D00935A
S205000D018765
S205000D0217D4
S205000D0300EA
S205000D0433B6
S205000D050ADE
S205000D06F7F0
S205000D0700E6
S205000D086382
S205000D095490
S205000D0A20C3
S205000D0B05DD
S205000D0C934E
S205000D0DF9E7
S205000D0EF9E6
S205000D0F0FCF
S205000D1013CA
S205000D1104D8
S205000D1209D2
S205000D1300DA
S205000D1413C6
S205000D1504D4
S205000D16F4E3
S205000D17FFD7
S205000D1813C2
S205000D19854F
S205000D1A09CA
S205000D1B00D2
S205000D1CEFE2
S205000D1D00D0
S205000D1E408F
S205000D1F6A64
S205000D20E3EA
S205000D211AB2
S205000D2204C7
S205000D23FECC
S205000D243396
S205000D250ABE
S205000D262A9D
S205000D2701C5
S205000D286F56
S205000D2900C4
S205000D2A8043
S205000D2B02C0
S205000D2CB30E
S205000D2D04BC
S205000D2EF9C6
S205000D2F407E
S205000D30635A
S205000D3106B6
S205000D3206B5
S205000D3306B4
S205000D346356
S205000D3508B0
S205000D360AAD
S205000D3708AE
S205000D3813A2
S205000D39892B
S205000D3A04AF
S205000D3B00B2
S205000D3C931E
S205000D3D09A7
S205000D3E00AF
S205000D3F03AB
S205000D40931A
S205000D4104A8
S205000D4200AB
S205000D4300AA
S205000D446F3A
S205000D45F0B8
S205000D461F88
S205000D47FAAC
S205000D486342
S205000D49188C
S205000D4A0A99
S205000D4B02A0
S205000D4C633E
S205000D4D148C
S205000D4E059A
S205000D4F0C92
S205000D50831A
S205000D51207C
S205000D52C1DA
S205000D530199
S205000D540396
S205000D552474
S205000D568116
S205000D570195
S205000D588312
S205000D592470
S205000D5A4152
S205000D5B0191
S205000D5C038E
S205000D5D2967
S205000D5E018E
S205000D5F018D
S205000D60830A
S205000D612963
S205000D62C1CA
S205000D63008A
S205000D648306
S205000D652A5E
S205000D664146
S205000D670086
S205000D681372
S205000D69057F
S205000D6A0A79
S205000D6B0082
S205000D6C037E
S205000D6D2A56
S205000D6E81FE
S205000D6F007E
S205000D70136A
S205000D71017B
S205000D72017A
S205000D730278
S205000D746712
S205000D7580F8
S205000D760077
S205000D770076
S205000D7893E2
S205000D790470
S205000D7A0073
S205000D7B0072
S205000D7C93DE
S205000D7D0967
S205000D7E006F
S205000D7F026C
S205000D80135A
S205000D810A62
S205000D82006B
S205000D83006A
S205000D84E386
S205000D851058
S205000D860562
S205000D87F670
S205000D886FF6
S205000D89F074
S205000D8A9FC4
S205000D8BFC66
S205000D8C93CE
S205000D8D0957
S205000D8E005F
S205000D8F035B
S205000D9093CA
S205000D910458
S205000D92005B
S205000D93005A
S205000D941346
S205000D95094F
S205000D960057
S205000D970056
S205000D986FE6
S205000D99F064
S205000D9ADF74
S205000D9BF45E
S205000D9C63EE
S205000D9D0A46
S205000D9E0A45
S205000D9F044A
S205000DA0133A
S205000DA189C3
S205000DA20447
S205000DA3004A
S205000DA493B6
S205000DA5093F
S205000DA60047
S205000DA70244
S205000DA893B2
S205000DA90440
S205000DAA0043
S205000DAB0042
S205000DAC6FD2
S205000DADF050
S205000DAE9FA0
S205000DAFF34B
S205000DB0132A
S205000DB176C6
S205000DB22615
S205000DB3003A
S205000DB463D6
S205000DB50236
S205000DB60631
S205000DB70432
S205000DB893A2
S205000DB9092B
S205000DBA0033
S205000DBB032F
S205000DBC63CE
S205000DBD1818
S205000DBE0A25
S205000DBF042A
S205000DC0939A
S205000DC184A8
S205000DC20526
S205000DC3002A
S205000DC49396
S205000DC5091F
S205000DC60027
S205000DC70323
S205000DC81312
S205000DC9F430
S205000DCAF92A
S205000DCB0F13
S205000DCC130E
S205000DCD8997
S205000DCE041B
S205000DCF001E
S205000DD0130A
S205000DD10913
S205000DD2F922
S205000DD3FF1B
S205000DD41306
S205000DD50513
S205000DD60413
S205000DD70016
S205000DD8EF26
S205000DD90014
S205000DDA8093
S205000DDB5EB4
S205000DDCE32E
S205000DDD1AF6
S205000DDE0906
S205000DDFFE10
S205000DE0030A
S205000DE1C547
S205000DE20A01
S205000DE3000A
S205000DE4E326
S205000DE510F8
S205000DE60502
S205000DE7F016
S205000DE813F2
S205000DE98A7A
S205000DEA04FF
S205000DEB0002
S205000DEC6F92
S205000DEDF010
S205000DEE5FA0
S205000DEFF608
S205000DF0936A
S205000DF109F3
S205000DF200FB
S205000DF302F8
S205000DF46F8A
S205000DF5F008
S205000DF65F98
S205000DF7FDF9
S205000DF86392
S205000DF918DC
S205000DFA0AE9
S205000DFB00F2
S205000DFC935E
S205000DFD846C
S205000DFE05EA
S205000DFF00EE
S205000E009359
S205000E0109E2
S205000E0200EA
S205000E0302E7
S205000E046F79
S205000E05F0F7
S205000E065F87
S205000E07FCE9
S205000E089351
S205000E0909DA
S205000E0A00E2
S205000E0B02DF
S205000E0C13CD
S205000E0D0AD5
S205000E0E00DE
S205000E0F00DD
S205000E106F6D
S205000E11F0EB
S205000E12DFFB
S205000E13EFEA
S205000E149345
S205000E1504D3
S205000E1600D6
S205000E1700D5
S205000E189341
S205000E1909CA
S205000E1A00D2
S205000E1B02CF
S205000E1C6F61
S205000E1DF0DF
S205000E1E9F2F
S205000E1FECE1
S205000E2013B9
S205000E2101CA
S205000E2201C9
S205000E23FCCD
S205000E2423A5
S205000E252A9D
S205000E269135
S205000E2702C3
S205000E2823A1
S205000E292E95
S205000E2A11B1
S205000E2B02BF
S205000E2C239D
S205000E2D2C93
S205000E2E813D
S205000E2F02BB
S205000E309329
S205000E318833
S205000E3205B5
S205000E3300B9
S205000E349325
S205000E3504B3
S205000E3606B0
S205000E3700B5
S205000E389321
S205000E39852E
S205000E3A06AC
S205000E3B00B1
S205000E3C139D
S205000E3D06A9
S205000E3E07A7
S205000E3F00AD
S205000E406349
S205000E410E9D
S205000E4205A5
S205000E431297
S205000E441395
S205000E45089F
S205000E4605A1
S205000E4700A5
S205000E486341
S205000E49861D
S205000E4A049E
S205000E4B00A1
S205000E4C138D
S205000E4D0798
S205000E4EA0FE
S205000E4F009D
S205000E506339
S205000E518813
S205000E52E8B2
S205000E531485
S205000E54A3F5
S205000E550790
S205000E560195
S205000E570293
S205000E581381
S205000E59078C
S205000E5A0092
S205000E5B0190
S205000E5C632D
S205000E5D820D
S205000E5EE8A6
S205000E5F0C81
S205000E6093F9
S205000E610487
S205000E62008A
S205000E630089
S205000E64B7D1
S205000E650E79
S205000E661076
S205000E670085
S205000E68B7CD
S205000E69A6DD
S205000E6A99E9
S205000E6B1968
S205000E6C136D
S205000E6D047B
S205000E6EF18D
S205000E6F027B
S205000E7093E9
S205000E718EED
S205000E728EEC
S205000E731564
S205000E7493E5
S205000E7586F1
S205000E7696E0
S205000E7799DC
S205000E78B3C1
S205000E79086B
S205000E7AD89A
S205000E7B026F
S205000E7C135D
S205000E7D5718
S205000E7E1856
S205000E7F006D
S205000E8093D9
S205000E815714
S205000E822842
S205000E830069
S205000E84B3B5
S205000E8587E0
S205000E86E77F
S205000E870065
S205000E881351
S205000E89D58E
S205000E8A471B
S205000E8B0061
S205000E8CB3AD
S205000E8D87D8
S205000E8EA7B7
S205000E8F005D
S205000E901349
S205000E91D586
S205000E9287D3
S205000E930059
S205000E94B3A5
S205000E9587D0
S205000E96A7AF
S205000E970055
S205000E981341
S205000E995300
S205000E9A381A
S205000E9B0051
S205000E9C133D
S205000E9DD57A
S205000E9E0747
S205000E9F014C
S205000EA0B399
S205000EA188C3
S205000EA2E862
S205000EA30049
S205000EA4B395
S205000EA588BF
S205000EA668DE
S205000EA70045
S205000EA8B391
S205000EA987BC
S205000EAAA79B
S205000EAB0041
S205000EAC93AD
S205000EADD768
S205000EAE3707
S205000EAF003D
S205000EB093A9
S205000EB1D863
S205000EB2C872
S205000EB30138
S205000EB4B385
S205000EB588AF
S205000EB61E18
S205000EB70134
S205000EB81321
S205000EB993A0
S205000EBA270B
S205000EBB0031
S205000EBC032D
S205000EBDCE61
S205000EBE0826
S205000EBF002D
S205000EC0B379
S205000EC10823
S205000EC2F337
S205000EC30029
S205000EC49395
S205000EC5988F
S205000EC6180E
S205000EC70025
S205000EC81311
S205000EC9081B
S205000ECA68BA
S205000ECB0021
S205000ECC33ED
S205000ECD0817
S205000ECE1806
S205000ECF41DC
S205000ED01309
S205000ED158C3
S205000ED248D2
S205000ED30019
S205000ED49385
S205000ED5080F
S205000ED60E08
S205000ED70312
S205000ED8A371
S205000ED90F04
S205000EDA14FE
S205000EDBFF12
S205000EDC33DD
S205000EDD0807
S205000EDEF816
S205000EDF000D
S205000EE013F9
S205000EE10506
S205000EE20406
S205000EE30009
S205000EE413F5
S205000EE50403
S205000EE6F412
S205000EE7FF06
S205000EE8E321
S205000EE918EB
S205000EEA08FA
S205000EEBF809
S205000EEC639D
S205000EED807F
S205000EEE04FA
S205000EEF0CF1
S205000EF06399
S205000EF18E6D
S205000EF205F5
S205000EF306F3
S205000EF49365
S205000EF57780
S205000EF626D0
S205000EF700F5
S205000EF86391
S205000EF98A69
S205000EFA07EB
S205000EFB06EB
S205000EFC13DD
S205000EFD05EA
S205000EFED01E
S205000EFF02EB
S205000F0023C8
S205000F0126C4
S205000F02C128
S205000F0300E8
S205000F0423C4
S205000F0524C2
S205000F06B134
S205000F0700E4
S205000F08EFF4
S205000F0900E2
S205000F0A8061
S205000F0B4B95
S205000F0C835C
S205000F0D25B9
S205000F0E815C
S205000F0F00DC
S205000F1003D8
S205000F1126B4
S205000F12C118
S205000F1300D8
S205000F1413C4
S205000F1505D1
S205000F1604D1
S205000F1700D4
S205000F189340
S205000F19854D
S205000F1AF5DC
S205000F1BFFD1
S205000F1C6F60
S205000F1D00CE
S205000F1E408D
S205000F1F03C9
S205000F2013B8
S205000F2105C5
S205000F22F1D8
S205000F2302C6
S205000F249334
S205000F2506C0
S205000F269035
S205000F2700C4
S205000F2813B0
S205000F29873B
S205000F2A675A
S205000F2BFCC4
S205000F2C932C
S205000F2D7747
S205000F2EF8C5
S205000F2F00BC
S205000F3013A8
S205000F3105B5
S205000F32F5C4
S205000F33FFB9
S205000F3413A4
S205000F35585E
S205000F36486D
S205000F3700B4
S205000F386350
S205000F39F4BE
S205000F3AF6BB
S205000F3B00B0
S205000F3CB3FC
S205000F3D8727
S205000F3EE7C6
S205000F3F00AC
S205000F409318
S205000F418723
S205000F4207A2
S205000F4303A5
S205000F442384
S205000F4500A6
S205000F46F5B0
S205000F4700A4
S205000F48E3C0
S205000F491290
S205000F4A0899
S205000F4BFEA2
S205000F4C930C
S205000F4D049A
S205000F4E009D
S205000F4F009C
S205000F50EFAC
S205000F51F0AA
S205000F521F7A
S205000F53D3C5
S205000F548314
S205000F552076
S205000F56C1D4
S205000F570391
S205000F580390
S205000F59246E
S205000F5A8110
S205000F5B038D
S205000F5C335C
S205000F5D0589
S205000F5E95F8
S205000F5F008C
S205000F608308
S205000F612466
S205000F624148
S205000F630385
S205000F641374
S205000F650185
S205000F660184
S205000F670480
S205000F68671C
S205000F698002
S205000F6A0081
S205000F6B0080
S205000F6C93EC
S205000F6D0777
S205000F6ED0AD
S205000F6F027A
S205000F701368
S205000F710575
S205000F72E594
S205000F73FF79
S205000F74A3D4
S205000F750F67
S205000F76F481
S205000F77FE76
S205000F786F04
S205000F79F082
S205000F7A5F12
S205000F7BFD73
S205000F7C135C
S205000F7D0569
S205000F7E016C
S205000F7F016B
S205000F8093D8
S205000F810763
S205000F820069
S205000F830365
S205000F842344
S205000F85184E
S205000F86F174
S205000F870064
S205000F88EF74
S205000F89F072
S205000F8A9FC2
S205000F8BCF91
S205000F8C83DC
S205000F8D203E
S205000F8EC19C
S205000F8F0359
S205000F900358
S205000F912436
S205000F9281D8
S205000F930355
S205000F9483D4
S205000F952432
S205000F964114
S205000F970351
S205000F981340
S205000F990151
S205000F9A0150
S205000F9B044C
S205000F9C67E8
S205000F9D80CE
S205000F9E004D
S205000F9F004C
S205000FA063E8
S205000FA14A00
S205000FA20544
S205000FA30048
S205000FA4A3A4
S205000FA5073F
S205000FA60144
S205000FA70242
S205000FA86FD4
S205000FA9F052
S205000FAA9FA2
S205000FABEB55
S205000FAC132C
S205000FAD0539
S205000FAE0439
S205000FAF003C
S205000FB06FCC
S205000FB1F04A
S205000FB21F1A
S205000FB3FA3E
S205000FB43304
S205000FB5082E
S205000FB6A095
S205000FB740F4
S205000FB8A390
S205000FB9072B
S205000FBA0130
S205000FBB022E
S205000FBC6FC0
S205000FBDF03E
S205000FBE9F8E
S205000FBFEA42
S205000FC01318
S205000FC10129
S205000FC20128
S205000FC3FA2E
S205000FC42304
S205000FC528FE
S205000FC62104
S205000FC70321
S205000FC82300
S205000FC92EF4
S205000FCA1110
S205000FCB021E
S205000FCC23FC
S205000FCD2CF2
S205000FCE819C
S205000FCF021A
S205000FD023F8
S205000FD12AF0
S205000FD29188
S205000FD30216
S205000FD423F4
S205000FD526F0
S205000FD631E4
S205000FD70311
S205000FD823F0
S205000FD924EE
S205000FDA41D0
S205000FDB030D
S205000FDC23EC
S205000FDD22EC
S205000FDE51BC
S205000FDF0309
S205000FE023E8
S205000FE120EA
S205000FE261A8
S205000FE30305
S205000FE423E4
S205000FE52ED8
S205000FE67194
S205000FE70103
S205000FE823E0
S205000FE92CD6
S205000FEA8180
S205000FEB01FF
S205000FEC23DC
S205000FED2AD4
S205000FEE916C
S205000FEF01FB
S205000FF023D8
S205000FF122D8
S205000FF2B148
S205000FF304F4
S205000FF423D4
S205000FF524D2
S205000FF6C134
S205000FF704F0
S205000FF823D0
S205000FF926CC
S205000FFAD120
S205000FFB04EC
S205000FFC23CC
S205000FFD28C6
S205000FFEE10C
S205000FFF04E8
S20500100023C7
S2050010012ABF
S205001002F1F7
S20500100304E3
S20500100423C3
S2050010052CB9
S20500100601E3
S20500100705DE
S20500100823BF
S2050010092EB3
S20500100A11CF
S20500100B05DA
S20500100C835B
S20500100D4796
S20500100E05D7
S20500100F00DB
S20500101013C7
S20500101109D0
S2050010124197
S20500101304D3
S20500101423B3
S20500101526AF
S20500101621B3
S20500101701D2
S205001018636F
S205001019824F
S20500101A07C9
S20500101B1EB1
S20500101CB717
S20500101D09C4
S20500101E10BC
S20500101F00CB
S20500102013B7
S20500102103C6
S20500102205C3
S20500102300C7
S2050010249333
S2050010250CB9
S20500102600C4
S20500102700C3
S205001028932F
S20500102904BD
S20500102A5070
S20500102B02BD
S20500102C932B
S20500102D0AB3
S20500102ED0EC
S20500102F02B9
S20500103013A7
S2050010310CAD
S20500103200B8
S20500103303B4
S2050010349323
S2050010350BAA
S2050010369024
S20500103700B3
S205001038139F
S2050010390AA7
S20500103A3080
S20500103B07A8
S20500103C139B
S20500103D0BA2
S20500103E00AC
S20500103F02A9
S2050010409317
S2050010418920
S205001042495F
S20500104305A2
S2050010446343
S2050010459A0B
S205001046970D
S205001047089B
S205001048039F
S205001049455C
S20500104A138D
S20500104B009F
S20500104C633B
S20500104D0499
S20500104E0597
S20500104F0A91
S2050010501387
S2050010510495
S2050010521385
S2050010530097
S2050010546333
S205001055068F
S20500105695FF
S205001057088B
S205001058137F
S205001059078A
S20500105A0090
S20500105B008F
S20500105C632B
S20500105D0687
S20500105E5537
S20500105F0784
S2050010606327
S2050010611A6F
S2050010628503
S2050010630186
S2050010640383
S2050010654540
S2050010661470
S2050010670083
S205001068136F
S205001069671A
S20500106A2759
S20500106B007F
S20500106C136B
S20500106D0479
S20500106E1468
S20500106F007B
S205001070E397
S2050010710A6F
S20500107285F3
S205001073FF78
S2050010741363
S205001075086D
S205001076056F
S205001077FD76
S20500107893DF
S20500107977FA
S20500107AF878
S20500107B0F60
S20500107C93DB
S20500107D0667
S20500107E006C
S20500107F006B
S2050010806307
S205001081E485
S205001082FB6D
S2050010830265
S2050010840363
S2050010854520
S2050010861450
S2050010870063
S20500108893CF
S20500108997CA
S20500108A263A
S20500108B005F
S20500108CB3AB
S20500108D87D6
S20500108ED785
S20500108F005B
S20500109093C7
S20500109197C2
S2050010921741
S2050010930057
S205001094B3A3
S205001095064F
S205001096F85C
S2050010970053
S205001098133F
S2050010990849
S20500109A054B
S20500109BFD52
S20500109C93BB
S20500109D77D6
S20500109EF854
S20500109F0F3C
S2050010A01337
S2050010A10445
S2050010A21434
S2050010A30047
S2050010A4E363
S2050010A5F055
S2050010A6FB49
